:100000000C946A000C9487000C9487000C94870071
:100010000C9487000C9487000C9487000C94870044
:100020000C94A0000C9487000C9487000C9437016A
:100030000C9487000C9487000C9487000C94870024
:100040000C9487000C9487000C9487000C94870014
:100050000C948700404346494C4F5255585B5E60B4
:100060006366686A6D6F7173757678797B7C7D7E67
:100070007E7F7F7F7F7F7F7F7E7E7D7C7B797876B2
:100080007573716F6D6A686663605E5B5855524F39
:100090004C494643403C393633302D2A2724211F12
:1000A0001C19171512100E0C0A0907060403020189
:1000B000010000000000000001010203040607091E
:1000C0000A0C0E10121517191C1F2124272A2D3077
:1000D0003336393C11241FBECFE5D4E0DEBFCDBF9F
:1000E00010E0A0E6B0E0E0ECFBE002C005900D926D
:1000F000AA39B107D9F710E0AAE9B0E001C01D9212
:10010000A63AB107E1F70E94F5000C94DE050C94C5
:1001100000001F93182F8A3019F48DE00E94890087
:100120005D9BFECF1CB980E090E01F9108955F9B1E
:1001300003C02CB130E002C020E030E0C9010895D6
:100140001F920F920FB60F9211248F939F93EF93EC
:10015000FF93E0919A0080919B00E80FE0939B0051
:10016000F0E03296F595E795F595E795EF77E09312
:100170009C00F0E0EC5AFF4FE491F0E0FBBDEABDDB
:1001800080919F0090E099BD88BDFF91EF919F9174
:100190008F910F900FBE0F901F9018951ABA8FEF86
:1001A0008BBB87BB88BB80E381BB89B7846089BF79
:1001B0008FB5806A8FBD8FB581608FBD8EB5816030
:1001C0008EBD8CE890E09093A1008093A000909366
:1001D000A3008093A20010BC87E189B988E18AB9A5
:1001E000579A86E880BD789408950E94CE0080E6F4
:1001F00090E00E94EB02FFCF843331F1853370F43D
:100200008133E1F0823328F48D3061F1803369F578
:100210002BC08233A9F0833341F514C08733D1F06A
:10022000883328F4853391F08633F9F411C089338B
:10023000A9F0893388F08235C1F412C091E015C06D
:1002400092E013C093E011C094E00FC095E00DC0A0
:1002500096E00BC097E009C098E007C099E005C0A0
:1002600092E503C09DE001C090E0892F08951F92A0
:100270000F920FB60F9211242F933F934F935F93DA
:100280006F937F938F939F93AF93BF93EF93FF935E
:100290008091A0009091A1000E948D020E94FC001C
:1002A000823519F410929E00C2C08D3029F48DE081
:1002B00090E00E94E402BBC090919D00913051F407
:1002C00090919E0024E6829F802D1124890F8093B7
:1002D0009E00ADC090919D00923059F420919E00F7
:1002E000880F982F990F990F980F920F90939E0057
:1002F0009EC090919D00933009F099C090919E000E
:10030000980F90939E0080919E00843208F05CC00C
:1003100080919E00893038F485E080939F008FE7BC
:1003200088BBE1E047C080919E008C3038F484E2C5
:1003300080939F008FE388BBE2E03CC080919E00E9
:100340008F3038F488E480939F008FE188BBE3E02E
:1003500031C080919E00823138F48CE680939F00FA
:100360008FE088BBE4E026C080919E00853138F4A0
:1003700080E980939F0087E088BBE5E01BC0809107
:100380009E00883138F484EB80939F0083E088BB23
:10039000E6E010C080919E008B3138F488ED8093A8
:1003A0009F0081E088BBE7E005C08FEF80939F004E
:1003B00018BAE8E0F0E0ED57FF4F808180939A0093
:1003C0008FB580688FBD07C08FB58F778FBD1092B6
:1003D0009F008FEF88BB80919E0040919E0000D0CF
:1003E00000D000D0EDB7FEB731962CE630E0ADB7C7
:1003F000BEB712963C932E9311972CE0622F0E9469
:100400005A0282831382842F0E945A029483158297
:100410000E94CF0289E993E00197F1F700C0ADB7E0
:10042000BEB716960FB6F894BEBF0FBEADBF809193
:100430009D0090E0019665E070E00E946602809366
:100440009D00FF91EF91BF91AF919F918F917F910F
:100450006F915F914F913F912F910F900FBE0F9031
:100460001F9018958F3ED1F0803F38F48F3BD1F02C
:100470008F3DB1F08F37D1F417C08B3F59F08C3FCF
:1004800018F4873F99F408C08D3F91F08E3F71F4C6
:1004900081E0089583E0089584E0089585E008955B
:1004A00086E0089587E0089588E0089580E0089543
:1004B00082E00895991B79E004C0991F961708F00F
:1004C000961B881F7A95C9F78095089597FB092E8A
:1004D00007260AD077FD04D00CD006D000201AF4ED
:1004E000709561957F4F0895F6F7909581959F4F90
:1004F0000895AA1BBB1B51E107C0AA1FBB1FA6176B
:10050000B70710F0A61BB70B881F991F5A95A9F7BC
:1005100080959095BC01CD010895CF93DF93EC01B8
:100520003B8130FF36C036FF09C03F7B3B838E8165
:100530009F8101969F838E832A8129C032FF0FC03D
:10054000E881F9818081992787FD9095009719F4BA
:1005500030623B831EC03196F983E88311C0EA857F
:10056000FB85CE01099597FF0BC02B813FEF8F3F95
:10057000930711F480E101C080E2822B8B8309C0D4
:100580002E813F812F5F3F4F3F832E83282F30E006
:1005900002C02FEF3FEFC901DF91CF910895A0E096
:1005A000B0E0E5EDF2E00C94B705FE0135966191FF
:1005B00071918091A2009091A300AF010E9420034D
:1005C0002096E2E00C94D3056091A2007091A30004
:1005D0000E941D050895EF92FF920F931F93CF93F2
:1005E000DF938C01E091A200F091A300838181FF51
:1005F0001FC0C0E0D0E00AC0DB011896ED91FC916D
:1006000019970995009711F0CFEFDFEFF80181916D
:100610008F016091A2007091A300882369F7DB012C
:100620001896ED91FC9119978AE00995009711F0C1
:10063000CFEFDFEFCE01CDB7DEB7E6E00C94CF050C
:10064000ACE0B0E0E6E2F3E00C94A7056C011B011E
:100650008A01FC0117821682838181FFD1C12E019C
:100660000894411C511CF6019381F10193FD859181
:1006700093FF81911F01882309F4BEC1853239F4AB
:1006800093FD859193FF81911F01853229F490E0BC
:10069000B6010E941D05E7CFEE24FF2420E02032A2
:1006A000B0F48B3269F08C3228F4803251F083320E
:1006B00071F40BC08D3239F0803349F421602CC0C5
:1006C0002260246029C0286027C0206125C027FD42
:1006D0002CC0382F30533A3098F426FF08C08E2DA6
:1006E000880FE82EEE0CEE0CE80EE30E15C08F2DF1
:1006F000880FF82EFF0CFF0CF80EF30E20620CC0D2
:100700008E3221F426FD78C1206406C08C3611F4A7
:10071000206802C0883649F4F10193FD859193FF6A
:1007200081911F01882309F0BACF982F95549330F7
:1007300018F09052933028F40C5F1F4FFFE3F983B9
:100740000DC0833631F0833771F0833509F060C016
:1007500022C0F801808189830E5F1F4F420171E042
:10076000A72EB12C16C062E0662E712C600E711E91
:10077000F8018080918026FF03C06E2D70E002C0DA
:100780006FEF7FEFC4012C870E9412055C0183018B
:100790002C852F7717C052E0652E712C600E711ECC
:1007A000F8018080918026FF03C06E2D70E002C0AA
:1007B0006FEF7FEFC4012C870E9407055C012C8539
:1007C0002068830123FD20C008C080E290E0B601CC
:1007D0002C870E941D05FA942C858F2D90E0A81679
:1007E000B90698F311C0F40127FD859127FF819187
:1007F0004F0190E0B6012C870E941D052C85F11059
:10080000FA940894A108B108A114B10461F7F1C0E9
:10081000843611F0893649F527FF08C0F801608158
:100820007181828193810C5F1F4F09C0F801608143
:100830007181882777FD8095982F0E5F1F4F4FE6B7
:10084000B42EB22297FF09C090958095709561955E
:100850007F4F8F4F9F4FF0E8BF2AA2012AE030E080
:100860000E944905782E741845C0853731F43FEE53
:10087000B32EB2222AE030E025C099EFB92EB22281
:100880008F36C1F0803720F4883509F0B5C00DC02F
:10089000803721F0883709F0AFC002C020E1B22ACA
:1008A000B4FE0BC084E0B82A08C0B4FE09C0E6E07C
:1008B000BE2A06C028E030E005C020E130E002C0DA
:1008C00020E132E0B7FE08C0F801608171818281C9
:1008D00093810C5F1F4F07C0F8016081718180E038
:1008E00090E00E5F1F4FA2010E944905782E7418F8
:1008F000FFE7BF22B6FE0BC02EEFB2227E1438F403
:10090000B4FE07C0B2FC05C08FEEB82202C0A72C0F
:1009100001C0AE2C8B2D90E0B4FE0DC0FE01E70DA2
:10092000F11D2081203319F4E9EEBE2209C0A39401
:10093000B2FE06C004C086789070009709F0A394B8
:100940008B2C9924B3FC14C0B0FE0FC0AF1428F454
:10095000E72CEF0CEA18AF2C08C0E72C06C080E2A9
:1009600090E0B6010E941D05A394AF14C0F304C02B
:10097000AF1410F4FA1801C0FF2484FE0FC080E306
:1009800090E0B6010E941D0582FE1FC081FE03C0DB
:1009900088E590E010C088E790E00DC0C40186783B
:1009A0009070009791F081FC02C080E201C08BE260
:1009B000B7FC8DE290E0B6010E941D0506C080E301
:1009C00090E0B6010E941D05EA947E14C0F37A946B
:1009D000F201E70DF11D808190E0B6010E941D0536
:1009E0007720A9F706C080E290E0B6010E941D05BD
:1009F000FA94FF20C1F737CEF6012681378102C075
:100A00002FEF3FEFC9012C96E2E10C94C305FC01E6
:100A10000590615070400110D8F7809590958E0F29
:100A20009F1F0895FC016150704001900110D8F79C
:100A3000809590958E0F9F1F08950F931F93CF93CE
:100A4000DF938C01EB018B8181FF1BC082FF0DC006
:100A50002E813F818C819D812817390764F4E881BC
:100A6000F9810193F983E88306C0E885F985802F31
:100A70000995009731F48E819F8101969F838E8323
:100A800002C00FEF1FEFC801DF91CF911F910F91AF
:100A90000895FA01AA27283051F1203181F1E89414
:100AA0006F936E7F6E5F7F4F8F4F9F4FAF4FB1E061
:100AB0003ED0B4E03CD0670F781F891F9A1FA11D5C
:100AC000680F791F8A1F911DA11D6A0F711D811D5D
:100AD000911DA11D20D009F468943F912AE0269F22
:100AE00011243019305D3193DEF6CF010895462F81
:100AF0004770405D4193B3E00FD0C9F7F6CF462F62
:100B00004F70405D4A3318F0495D31FD40524193CA
:100B100002D0A9F7EACFB4E0A69597958795779587
:100B20006795BA95C9F700976105710508959B010E
:100B3000AC010A2E06945795479537952795BA9597
:100B4000C9F7620F731F841F951FA01D08952F9270
:100B50003F924F925F926F927F928F929F92AF924D
:100B6000BF92CF92DF92EF92FF920F931F93CF939A
:100B7000DF93CDB7DEB7CA1BDB0B0FB6F894DEBF31
:100B80000FBECDBF09942A88398848885F846E8457
:100B90007D848C849B84AA84B984C884DF80EE80A1
:100BA000FD800C811B81AA81B981CE0FD11D0FB6AA
:100BB000F894DEBF0FBECDBFED010895F894FFCFCE
:100BC0000A0A44697374616E63653A0009253264E8
:100BD0002066742025326420696E094E6F74653A70
:100BE000202573001F23252A2F32383E00000003E2
:0A0BF00000000000890097000000DB
:00000001FF
